 8=FIXT.1.1|9=147|35=3|34=3|49=TRADEWEB|52=20260203-23:04:40.264|56=LBP_EURP_PT_LDN_TEST|45=2|58=Value is incorrect (out of range) for this tag|371=150|372=AR|373=5|10=209
