[INFO ] 2026-02-04 00:14:19.981 [QFJ Message Processor] FixClientStarter - TO APP (AR) >>> 8=FIXT.1.1|9=127|35=AR|34=2|49=LBP_EURP_PT_LDN_TEST|52=20260203-23:14:19.981|56=TRADEWEB|487=0|571=20260203.LBP.EURP.TRDCONF.1840.1|856=0|939=0|10=016|
[INFO ] 2026-02-04 00:14:19.981 [QFJ Message Processor] FixSessionLog - Session OUT >>> 8=FIXT.1.1|9=127|35=AR|34=2|49=LBP_EURP_PT_LDN_TEST|52=20260203-23:14:19.981|56=TRADEWEB|487=0|571=20260203.LBP.EURP.TRDCONF.1840.1|856=0|939=0|10=016|
[INFO ] 2026-02-04 00:14:19.982 [QFJ Message Processor] FixClientStarter - Trade Capture Report ACK sent for TradeReportID: 20260203.LBP.EURP.TRDCONF.1840.1
[INFO ] 2026-02-04 00:14:20.057 [NioProcessor-2] FixSessionLog - Session IN >>> 8=FIXT.1.1|9=147|35=3|34=3|49=TRADEWEB|52=20260203-23:14:20.025|56=LBP_EURP_PT_LDN_TEST|45=2|58=Value is incorrect (out of range) for this tag|371=856|372=AR|373=5|10=216|
[INFO ] 2026-02-04 00:14:20.059 [QFJ Message Processor] FixClientStarter - FROM SERVER (Reject) >>> 8=FIXT.1.1|9=147|35=3|34=3|49=TRADEWEB|52=20260203-23:14:20.025|56=LBP_EURP_PT_LDN_TEST|45=2|58=Value is incorrect (out of range) for this tag|371=856|372=AR|373=5|10=216|
[INFO ] 2026-02-04 00:14:50.102 [NioProcessor-2] FixSessionLog - Session IN >>> 8=FIXT.1.1|9=71|35=0|34=4|49=TRADEWEB|52=20260203-23:14:50.063|56=LBP_EURP_PT_LDN_TEST|10=194|
