>>> 8=FIXT.1.1|9=120|35=3|34=5|49=TRADEWEB|52=20260204-09:33:44.476|56=LBP_EURP_PT_LDN_TEST|45=3|58=Required tag missing|371=60|372=AZ|373=1|10=254|
